:020000040800F2
:1000000030690020450100088126000825220008EB
:1000100039260008CD020008453400080000000021
:10002000000000000000000000000000352F000864
:100030006B03000800000000A3260008372F00080B
:100040005F0100085F0100085F0100085F01000810
:100050005F0100085F0100085F0100085F01000800
:100060005F0100085F0100085F0100085F010008F0
:100070005F0100085F0100085F0100085F010008E0
:100080005F0100085F0100085F0100085F010008D0
:100090005F0100085F0100085F0100085F010008C0
:1000A0005F0100085F0100085F0100085F010008B0
:1000B0005F0100085F0100085F0100085F010008A0
:1000C0005F0100085F0100085F0100085F01000890
:1000D0005F0100085F0100085F0100085F01000880
:1000E0005F0100085F0100085F0100085F01000870
:1000F0005F0100085F0100085F0100085F01000860
:100100005F0100085F0100085F0100085F0100084F
:100110005F0100085F010008D12F00085F0100089F
:100120005F0100085F010008350300085F01000857
:10013000DFF80CD000F048F800480047E54600081A
:10014000306900200648804706480047FEE7FEE782
:10015000FEE7FEE7FEE7FEE7FEE7FEE7FEE7FEE777
:10016000892F000831010008D2B201E000F8012B0C
:10017000491EFBD270470022F6E710B513460A4627
:1001800004461946FFF7F0FF204610BD10B50022C7
:1001900000E0521C835C8C5CA34201D1002BF8D19F
:1001A000D8B2E1B2401A10BD30B505460020034672
:1001B00000E05B1C934205D2EC5CC85C201A01D1C4
:1001C000002CF6D130BD0000064C074D06E0E0687B
:1001D00040F0010394E8070098471034AC42F6D38E
:1001E000FFF7AAFFC8560008E856000870B58C183B
:1001F00010F8015B15F0070301D110F8013B2A113B
:1002000006D110F8012B03E010F8016B01F8016B27
:100210005B1EF9D12B0705D40023521E0DD401F823
:10022000013BFAE710F8013BCB1A921C03E013F8EC
:10023000015B01F8015B521EF9D5A142D8D3002021
:1002400070BD00000146014801F0F3B8942500207C
:1002500010B5044801F0FFF8042801D0012010BDBA
:10026000002010BD9425002082B001208DF80000F0
:100270009DF80000012802D0012002B0704702481A
:1002800002B001F0FEB800009425002038B500242B
:10029000009313460A460146034801F079F900B17C
:1002A0000124204638BD00009425002038B50024E4
:1002B000009313460A460146034801F043FA00B191
:1002C0000124204638BD000094250020FEE710B52B
:1002D000446A204600F092F80120207110BD10B54C
:1002E000446A204600F066F80120207110BD10B568
:1002F000446A206940F004002061204600F0A9F81B
:100300000120207110BD10B5446A206940F004003E
:100310002061204600F050F80120207110BD10B57A
:10032000406A00F095F810BD10B5406A00F043F83F
:1003300010BD0000014800F0BBB90000C828002033
:1003400030B590F840500124AC40C56B6C60046837
:1003500063604368102B036803D099600068C26033
:1003600030BD9A600068C16030BD704770470022A0
:10037000AFF3008030B50E4B054601205C7A012CAE
:1003800015D8587A00241C54587A03EB8000456035
:100390005D7A03F108002A54587A421C5A723030B0
:1003A00008703A2048702F208870CC70002030BD33
:1003B0002429002070477047704770B54379012B9E
:1003C0001AD00124447102230371D1E90031056878
:1003D0000B43296840F6FE769640B143934019439B
:1003E000296001680B68C0259540AB430B60047120
:1003F00000214171084670BD022070BD38B5044629
:10040000104801F068FB1049D1E9820188420FD001
:1004100000200146009040F6FF730C4A204600F091
:100420009DF8084801F04BFBBDE8384004F0F2BBF2
:100430000021204600F008F9BDE83840024803F0EA
:100440001FBB00001826002054230020E4010020D8
:100450007047704770B5040003D02079002510B1B3
:1004600005E0012070BD6571204600F007F802200C
:100470002071256101202071002070BDF0B585B08C
:1004800000250646009501950295039500681949D7
:1004900088422DD11849C86940F00050C861C86928
:1004A00000F000500490886940F004008861886979
:1004B000102700F0040004900320CDE90070694685
:1004C0000E4800F0A1FA0F4C0D48C4E90007802047
:1004D000C4E90250400020618000C4E905052046BF
:1004E000E56100F009FA08B1FFF740FFB460666209
:1004F00005B0F0BD0074004000100240000801404B
:1005000030040240C828002030B54279012A12D0B8
:10051000012242710223037103681D6802FA01F48B
:1005200025431D60002901680B6806D0C3F383438F
:100530000F2B0AD00DE0022030BDC3F383030F2B35
:1005400007D14B6843F0010302E04B6843F002031C
:100550004B60027100214171084630BD2DE9F04128
:1005600004460D461746617900220698012920D0DD
:100570000126667102212171F5B1D4F80CC02C4915
:10058000CCF82810D4F80CC02A49CCF82C10D4F898
:100590000CC02949CCF830102168D1F800C04CF0CB
:1005A000805CC1F800C068B304282ED0082831D17F
:1005B0002EE00220BDE8F081D4F808C01F49CCF835
:1005C0002810D4F808C01E49CCF82C10D4F808C064
:1005D0001C49CCF830102168D1F800C04CF4805C84
:1005E000C1F800C020B1042805D0082808D105E0D2
:1005F0002268083204E022680C3201E022681032DE
:10060000A06808E02268143204E02268183201E091
:1006100022681C32E068394600F0ACF900206071B5
:1006200020680168AE40314301600020C2E700004D
:10063000DF0200082903000807030008CF020008B2
:100640001F030008EF02000870B504460068026846
:100650004FF480538B409A43026020680268012562
:1006600005FA01F39A43026031B1E06800F008F83E
:1006700020B10421217170BDA068F7E7257170BD1C
:1006800001680A6822F00E020A6001680A6822F016
:1006900001020A6090F84020C36B012101FA02F2C6
:1006A0005A6080F82110002180F820100846704719
:1006B0002DE9F05FC16B0A6801680B68046C4FF0AC
:1006C000040808FA04F8844D844E854FDFF814C2FC
:1006D000DFF81492DFF814A2DFF814B2DFF814E2A6
:1006E00018EA020F65D05FEA437862D50A6892067D
:1006F00003D40A6822F004020A60DFF8F0814FF4A4
:100700008062016808F1140813011402414524D9DC
:10071000A9420DD0B1420FD0B9421AD0614515D0CF
:10072000494515D0514501D1120312E0594501D177
:1007300004220EE0714501D140220AE06D4D1435CE
:10074000A94206D06B4A2832914201D11A4600E0F4
:1007500022466749091F0A6029E0A94213D0B14225
:1007600015D0B94220D061451BD049451BD0514519
:1007700002D14FF4800217E0414502D14FF0806270
:1007800012E0594501D104220EE0714501D1402209
:100790000AE0584D1435A94206D0564A28329142F3
:1007A00001D11A4600E022464B4908394A60C16A25
:1007B00071E04FF0020808FA04F818EA020F70D04E
:1007C0005FEA83786DD50A68920606D40A6822F03B
:1007D0000A020A60012180F82110DFF810814FF42D
:1007E0000072016808F1140813011402414524D96C
:1007F000A9420DD0B1420FD0B9421AD0614515D0EF
:10080000494515D0514501D1120312E0594501D196
:1008100002220EE0714501D120220AE0354D143547
:10082000A94206D0334A2832914201D11A4600E04B
:1008300022462F49091F0A6029E0A94213D0B1427C
:1008400015D0B94220D061451BD049451BD0514538
:1008500002D14FF4001217E0414502D14FF000726F
:1008600012E0594501D102220EE0714501D120224A
:100870000AE0204D1435A94206D01E4A2832914282
:1008800001D11A4600E02246134908394A60002186
:1008900080F82010816A00291CD0BDE8F05F08476D
:1008A000FFE70825A540154214D01A0712D50A689B
:1008B00022F00E020A6090F84020C36B012101FA79
:1008C00002F25A60816380F82110002180F8201024
:1008D000016BE0E7BDE8F09F080002401C00024009
:1008E0003000024044000240580002406C000240C8
:1008F000080402401C04024030B560B11A4B026883
:1009000014219A4209D2194B1344B3FBF1F1890027
:10091000016417490AE0012030BD134B5B421344C8
:10092000B3FBF1F1890001640F490839C163022169
:1009300080F82110136843F6F0718B43F0E901143D
:100940002143D0E902452C432143046921434469F2
:10095000214384692143194311600021416301222D
:1009600042770177084630BD08040240F8FFFDBF1A
:100970000000024070B5044690F8200000250128D0
:100980000CD0012084F8200094F821600020012E72
:1009900006D084F820000225284670BD022070BDD4
:1009A000022684F82160A0632068066826F001060C
:1009B00006602046FFF7C4FCE06A00282068016852
:1009C00002D041F00E0106E021F004010160206830
:1009D000016841F00A0101602068016841F00101ED
:1009E0000160D9E770B5044600F00CF90546601CBB
:1009F00002D004480078044400F004F9401BA042EF
:100A0000FAD370BDF82100202DE9F84FDFF8B8A126
:100A100000220AF1040B144601274FF00F090BF1D5
:100A2000040E00BF0B6807FA04F52B40AB4274D1EB
:100A3000DFF898C14E68A6EB0C0866452BD00DDC9C
:100A4000032E34D005DC36B3012E19D0022E2FD15F
:100A50001BE0112E16D0122E2AD119E0B8F5881FEE
:100A600019D006DCB8F5803F15D0B8F5801F1FD12E
:100A700011E0B8F5001F0ED0B8F5041F18D10AE038
:100A8000CA6815E0CA68121D12E0CA6808320FE091
:100A9000CA680C320CE08A682AB1012A4FF00802B9
:100AA00003D0456104E0042202E0056100E0002279
:100AB000FF2B01D8064601E000F104064FEA840549
:100AC00001D9A5F12005D6F800C009FA05F82CEAED
:100AD000080C02FA05F54CEA050CC6F800C04D6892
:100AE000ED006AD53A4DAE6946F00106AE61AD69DA
:100AF00024F0030605F001050095364D06EB050CC4
:100B0000DCF80850A6074FEA167809FA08F6B5434C
:100B1000314EB04202D100261AE04EE02F4EB042D4
:100B200001D1012614E02E4EB04201D102260FE081
:100B30002C4EB04201D103260AE02B4EB04201D127
:100B4000042605E0294EB04201D1052600E0062624
:100B500006FA08F62E43CCF808604D68DAF8006013
:100B6000ED03554601D51E4300E09E432E604D68BF
:100B7000AD0305D5DBF800601E43CBF8006004E050
:100B8000DBF800509D43CBF800504D68DEF8006064
:100B9000ED02754601D51E4300E09E432E604D6870
:100BA000AD0205D5084D0C352E681E432E6004E0BD
:100BB000054E0C3635689D433560641C102CFFF4DF
:100BC00031AFBDE8F88F00000004014000001110B3
:100BD000001002400000014000080140000C0140EC
:100BE000001001400014014000180140001C0140A9
:100BF0008068084000D0012070470AB10161704749
:100C00000904FBE70148806870470000F8210020D4
:100C1000024881680278114481607047F821002001
:100C2000074810B5016841F010010160032000F091
:100C300073F8002000F006F800F024F8002010BD42
:100C40000020024070B50D4D04464FF47A712878AB
:100C5000B1FBF0F00A490968B1FBF0F000F03FFE8B
:100C600048B9102C07D200222146501E00F034F85B
:100C700000206C6070BD012070BD0000F8210020D4
:100C8000042200200C4808B5816941F0010181610E
:100C9000816901F001010091C16941F08051C16198
:100CA000C06900F0805000900448416821F0E06184
:100CB00041F00071416008BD001002400000014099
:100CC00000F01F02012191404009800000F1E02066
:100CD000C0F8001170470000F0B40E4B1B680C46C2
:100CE000C3F30223C3F10705042D00D90425191D00
:100CF000072901D2002300E0DB1E012606FA05F1D8
:100D0000491E214099409E40761E16403143F0BC5A
:100D100001F0B7BC0CED00E0064900F007020868DE
:100D20004FF6FF03184040EA0220034A10430860D0
:100D3000704700000CED00E00000FA052DE9F047D7
:100D4000DFF8548105460E46D8F8000000F0070091
:100D5000B0420CD2D8F8001021F007013143C8F896
:100D60000010D8F8000000F00700B0426FD12868EA
:100D70004A4C810712D5400703D5606840F4E06013
:100D800060602878000703D5606840F460506060B8
:100D90006068A96820F0F000084360602878C00708
:100DA00044D06868012816D02168022816D0890727
:100DB00000294CDA616821F0030101436160FFF70B
:100DC00021FF6968074641F2883001290ED00229C7
:100DD000814618D026E021688903E9E78901E7E721
:100DE000FFF710FFC11B494501D918E08146606833
:100DF000C0F381000128F3D118E000BFFFF702FF24
:100E0000C11B49450BD86068C0F381000228F5D1A9
:100E10000CE000BFFFF7F6FEC11B494502D90320D5
:100E2000BDE8F087606810F00C0FF3D1D8F800101F
:100E3000404601F00701B1420BD9016821F00701DA
:100E400031430160006800F00700B04201D001208A
:100E5000E6E72878400705D56068E96820F4E06097
:100E6000084360602878000706D56068296920F487
:100E7000605040EAC100606000F036F86168084ADE
:100E8000C1F30311515CC840064908600020FFF718
:100E9000D9FE0020C4E700000020024000100240FC
:100EA000F0550008042200200448054900684968FC
:100EB000044AC1F30221515CC8407047042200205B
:100EC00000100240005600080448054900684968BF
:100ED000044AC1F3C221515CC8407047042200207B
:100EE000001002400056000812A185B00FC98DE81D
:100EF0000F0014A0144A006804905168134801F0D0
:100F00000C03042B10D0082B0ED1C1F38343C9036B
:100F10001DF803000AD5516804AAC1F34041515C91
:100F20000A4A5043B0FBF1F005B070470849484306
:100F3000FAE7000002030405060708090A0B0C0D76
:100F40000E0F1010010200000010024000127A0083
:100F500000093D002DE9F84F04460078B94DC0075F
:100F600048D06868C0F38100012807D06868C0F3E2
:100F70008100022809D16868C00306D5286880036B
:100F800038D5606800286FD034E06068B0F5803FE5
:100F90000BD010B1B0F5A02F11D0286820F480300C
:100FA0002860286820F4802002E0286840F480301F
:100FB0002860606888B1FFF725FE064609E02868CA
:100FC00040F480202860F0E7FFF71CFE801B6428B7
:100FD00075D828688003F7D50CE0FFF713FE0646A6
:100FE00005E000BFFFF70EFE801B6428F0D82868DC
:100FF0008003F7D42078944E80074FF001094FF01A
:1010000000083BD5686810F00C0F07D06868C0F383
:101010008100022809D16868C00306D428688007C7
:1010200014D5206901281FD110E02069B0B1C6F89D
:101030000090FFF7E7FD074605E000BFFFF7E2FD80
:10104000C01B0228C4D828688007F7D528686169C2
:1010500020F0F80040EAC10028600FE0C6F80080E8
:10106000FFF7D0FD074606E0E9E000BFFFF7CAFD45
:10107000C01B022823D828688007F7D420780007EF
:101080002CD57248A169D9B1C0F80090FFF7BAFD1C
:10109000074604E0FFF7B6FDC01B02280FD8686AB8
:1010A0008007F7D56A484FF4FA510068B0FBF1F0B9
:1010B000009000BF0098411E0091FAD20EE080E03F
:1010C000C0F80080FFF79EFD074604E0FFF79AFD99
:1010D000C01B022875D8686A8007F7D420784007BB
:1010E00060D5E8690027C00008D4E86940F0805066
:1010F000E861E869012700F08050009055480168D8
:10110000C90513D40168834641F480710160FFF77B
:1011100079FD824606E000BFFFF774FDA0EB0A00F0
:1011200064284ED8DBF80000C005F5D5E06801283A
:101130000AD008B1052813D0286A20F001002862DF
:10114000286A20F0040002E0286A40F001002862CA
:10115000E06841F2883B98B1FFF754FD82460BE00E
:10116000286A40F004002862EEE700BFFFF74AFD5E
:10117000A0EB0A0159455AD8286A8007F6D50CE039
:10118000FFF740FD824605E0FFF73CFDA0EB0A01BA
:1011900059454CD8286A8007F6D41FB1E86920F079
:1011A0008050E861E06988B36968C1F38101022970
:1011B00045D00228C6F8608004D0FFF723FD04461E
:1011C00038E034E0FFF71EFD074604E0FFF71AFDA4
:1011D000C01B02282BD828688001F7D4206AB0F5FC
:1011E000803F05D16868A16820F40030084368603A
:1011F000D4E908010843696821F474110843686060
:10120000C6F86090FFF7FEFC044606E015E000BF5C
:10121000FFF7F8FC001B022809D828688001F7D5E1
:101220000BE000BFFFF7EEFC001B022802D90320F1
:10123000BDE8F88F28688001F4D40020F8E7012089
:10124000F6E70000001002400000424280044242E3
:101250000422002000700040F0B5426E120E930987
:101260000B70C2F383034B7002F003028A70426E6C
:10127000120CCA70B0F86420120A0A7190F8642047
:101280004A71826E4FF6FF73120E03EA0212CA8091
:10129000826ECB88C2F3074243EA1213CB8002F07E
:1012A0000F020A72B0F86820C2F30722D3094B720A
:1012B000C2F380138B72C2F34013CB72C2F30013DC
:1012C0000B7300264E73446C4FF4007701236CB10E
:1012D000012C43D0026840F2FF519163816B41F0D1
:1012E0008051816380F834300120F0BD9207120DE7
:1012F0000A6190F868200C6944EA82020A61C26EB1
:101300000C69120E44EA92140C61C2F3C2040C750B
:1013100002F007024A75C26EC2F3074254098C7587
:10132000C2F38204CC759207520F0A76B0F86C2093
:10133000C2F307240A7E42EAD4120A760A69521CD2
:1013400042650D7EAD1CAA4042650D7A03FA05F593
:1013500085656D0A6A43C0E917271CE090F868208C
:101360009206920A0A61C26E0C69120E44EA0222C7
:101370000A61C26E0C69C2F3074214430C61B0F8F3
:101380006C20C2F307240A69521C4FEA822242658C
:10139000C0E916720766C4F3801201F8192F4FEAEC
:1013A00084624FEA52624A7010F86C2F4C7844EA1B
:1013B000D2144C7002F07F028A7042684FEA1262C7
:1013C0004FEAD214CC70C2F341140C71C2F3820400
:1013D0004C714FEA82724FEA12728A7142688C79BC
:1013E000C2F3074244EA92148C71C2F34014CC71E8
:1013F0000E7202F001024A728288C2F307224FEA9B
:10140000D2148C72C2F38014CC72C2F340140C73E9
:10141000C2F300144C73C2F381048C7302F0030214
:10142000CA7300794FEA500008744B744FF0000003
:10143000F0BD426C0A60826C4A60C26C8A60026DC8
:10144000CA60426D0A61826D4A61C26D8A61006E36
:10145000C8610020704770B50446B0F85000002500
:101460000104206801F089FA18B1A16B0143A1635E
:1014700004E00021206801F02BF90546C5F3432064
:1014800070BD70B5040004D094F83400002510B18C
:1014900005E0012070BD2577204600F037F80320D5
:1014A00084F83400204600F007F8A5632563012086
:1014B00084F83400002070BDFEB500250446C3202A
:1014C0000095CDE901502B462A462946206801F0B7
:1014D00005F90D4E46F8A05F206801F011F90125CD
:1014E00035600220FFF77EFA204601F04EFC20B95D
:1014F000204601F0D7FB002805D084F83450A16BBA
:101500000143A1630120FEBD0000304230B585B02B
:1015100000210091019102910391006818498842CD
:101520002BD11848416941F480614161416901F45E
:1015300080610491816941F010018161816901F04C
:1015400010010491816941F02001816180690224C8
:1015500000F0200004904FF48850CDE900040325EA
:10156000694603950848FFF74FFA0420CDE90004C7
:10157000694603950548FFF747FA05B030BD0000FE
:1015800000800140001002400010014000140140A2
:101590002DE9F04F87B09A4617460E460446DDF80F
:1015A00040B0FFF72FFB00903EB194F834000128C3
:1015B00007D0A06B40F000500FE0A06B40F000603F
:1015C0000BE04FF00008C4F83880E06D07EB0A012B
:1015D000814204D9A06B40F00070A0637DE003203D
:1015E00084F834002068C0F82C80606C012800D09A
:1015F0007F024FF40071206801F0D2F840F2FF59E9
:10160000012530B12268C2F83890A16B0143A16373
:1016100061E04FF0FF3001904FEA4A2002909020A5
:1016200003900220CDE90408069501A9206801F085
:1016300039F8BAF1010F06D9022020633946206833
:1016400001F024F904E025633946206801F037F9F8
:101650000028D7D140F22A382068416B11EA080FE0
:1016600022D1406B000409D50027206801F04CF816
:1016700046F827007F1C082FF7D32036BBF1000F58
:1016800005D0FFF7BFFA0099411A5945E4D3216804
:10169000C1F83890A06B40F00040A06384F834504B
:1016A000032007B0BDE8F08F416BC90509D5BAF139
:1016B000010F06D9616C032903D001F08FF90028CE
:1016C000A0D12068416B090709D5C0F83890A06BFC
:1016D00040F0080028E084F834500120E1E7416B35
:1016E000890705D5C0F83890A06B40F002001BE0D8
:1016F000416B89061AD5C0F83890A06B40F02000E5
:1017000012E000BF01F000F801C6BBF1000F05D0E8
:10171000FFF778FA0099411A594507D32168C1F8B3
:101720003890A06B40F00040A063D4E72068416B84
:101730008902E7D42168C1F8389084F83450002039
:10174000AFE700002DE9F04F87B09A4616460D46E8
:101750000446FFF757FA06903DB194F8340001288B
:1017600007D0A06B40F000500DE0A06B40F000608F
:1017700009E00020A063E26D06EB0A01914204D962
:10178000A06B40F00070A06390E0032184F8341057
:1017900021688146C862606C012800D076024FF44F
:1017A0000071206800F0FCFF40F2FF58012730B1C3
:1017B0002268C2F83880A16B0143A16317E0BAF137
:1017C000010F06D9202020633146206801F020F95E
:1017D00005E0102020633146206801F032F9060050
:1017E00008D02168C1F83880A06B3043A06384F82A
:1017F00034705BE04FF0FF3000904FEA4A200190D8
:10180000902002904846CDE90407CDF80C90B946E7
:101810006946206800F046FF40F21A3B22E0406B28
:1018200040040AD55FF0000705EB8701206800F04F
:101830007EFF7F1C082FF7D32035109830B1FFF7BB
:10184000E1F90699411A109881420BD32168C1F839
:101850003880A06B3043A06384F83490032007B035
:10186000BDE8F08F2068416B11EA0B0FD7D0416BB8
:10187000C9050FD5BAF1010F0CD9616C032909D044
:1018800001F0ACF830B12268C2F83880A16B014396
:10189000A16309E02068416B090709D5C0F83880C9
:1018A000A06B40F0080014E084F834900120D6E7E3
:1018B000416B890705D5C0F83880A06B40F0020065
:1018C00007E0416BC0F83880C90604D5A06B40F032
:1018D0001000A063E8E784F834900020BFE710B55B
:1018E000401EB0F1807F01D3012010BD4FF0E024F5
:1018F00060610F21601700F0C4FE0020A061072086
:101900002061002010BD7047704710B590F83C2052
:10191000012A25D0012280F83C20CA688C6822F474
:10192000407222434C6822F4806222430C6822F405
:10193000006222430C6922F4805222434C6922F453
:10194000005222438C6922F48042224322F4004157
:10195000026800232143516480F83C30002010BD10
:10196000022010BD30B590F83C20012A20D0012281
:1019700080F83C20022380F83D3003685C6824F046
:1019800070045C6003685C680D682C435C600368ED
:101990009C6824F080049C6003689C6849680C4340
:1019A0009C6080F83D20002180F83C10084630BD46
:1019B000022030BD10B5040003D094F83D0010B1F2
:1019C00007E0012010BD002084F83C00204600F014
:1019D0000DF8022084F83D00211D206801F0FEFA78
:1019E000012084F83D00002010BD000008B5274A02
:1019F00001682748914207D1816941F40061816102
:101A0000806900F4006014E0B1F1804F0AD0214AEF
:101A1000914210D1C16941F00401C161C06900F077
:101A2000040006E0C16941F00101C161C06900F034
:101A30000100009008BD184A914207D1C16941F0E8
:101A40000801C161C06900F00800F2E7134A914241
:101A500011D1C16941F01001C161C069002200F0DB
:101A60001000009011463620FFF736F9BDE8084017
:101A70003620FFF725B90A4A9142DBD1816941F44A
:101A800000518161806900F40050D2E7002C0140D0
:101A90000010024000080040000C00400010004010
:101AA00000340140022180F83D1001680A6842F0CC
:101AB00001020A60012180F83D1000207047016892
:101AC000CA6842F00102CA600068016841F0010181
:101AD000016000207047022180F83D1001680A6A09
:101AE00041F211131A4207D10A6A9B101A4203D11C
:101AF0000A6822F001020A60012180F83D100020EE
:101B0000704770B5044690F83C00012817D00125B5
:101B100084F83C50022084F83D002068826822F05E
:101B2000770222F47F4282600868502837D00DDCAB
:101B3000202859D005DC88B3102841D151E002207B
:101B400070BD302853D040283AD13FE060282ED0D5
:101B500070280BD0B0F5805F03D0B0F5005F2FD1B7
:101B600010E02068816821F0070115E0CB68D1E919
:101B70000121206801F083FA2168886840F077002D
:101B800088601DE0CB68D1E90121206801F077FA77
:101B90002068816841F48041816011E01EE0CA68DC
:101BA0004968206801F040FB5021206806E0CA68BF
:101BB0004968206801F049FB6021206801F069FA5A
:101BC00084F83D50002084F83C0070BDCA68496824
:101BD000206801F029FB40212068EFE70021206800
:101BE000ECE710212068E9E720212068E6E73021B2
:101BF0002068E3E7704770B50446006801694FF05C
:101C00000005C943890715D4C168C943890711D4A0
:101C1000E91E016101202077206880698007204645
:101C200002D0FFF7E7FF04E000F034F9204600F0AF
:101C3000B6F9257720680169C943490717D4C168F7
:101C4000C943490713D46FF00401016102202077D2
:101C50002068806910F4407F204602D0FFF7CAFF59
:101C600004E000F017F9204600F099F92577206884
:101C70000169C943090716D4C168C943090712D4C9
:101C80006FF008010161042020772068C069800797
:101C9000204602D0FFF7AEFF04E000F0FBF820463C
:101CA00000F07DF9257720680169C943C90617D47A
:101CB000C168C943C90613D46FF01001016108203F
:101CC00020772068C06910F4407F204602D0FFF7DB
:101CD00091FF04E000F0DEF8204600F060F925777F
:101CE00020680169C943C90708D1C168C943C90748
:101CF00004D1891E0161204600F06EF92068016957
:101D0000C943090609D4C168C943090605D46FF05F
:101D1000800101612046FFF7F6FD20680169C94393
:101D2000490609D4C168C943490605D46FF040018A
:101D30000161204600F051F920680169C943890614
:101D40000BD4C168C943890607D46FF02001016133
:101D50002046BDE87040FFF7D7BD70BD10B586B016
:101D6000002100910191029103913F4B02683F488D
:101D700002213F4C9A4218D1826942F040028261AE
:101D80008069039100F0400004904FF4D440CDE905
:101D9000000169463748FEF737FE606820F0C00052
:101DA00040F0E06040F0C00034E0B2F1804F19D064
:101DB000314B9A4231D1826942F0200282618069BE
:101DC000039100F0200004904FF46040CDE9000141
:101DD00069462A48FEF718FE606840F0E06040F46B
:101DE000805017E0826942F00802826180690391A5
:101DF00000F0080004904FF44060CDE9000169460E
:101E00001F48FEF701FE606820F4407040F0E0607B
:101E100040F40070606006B010BD1A4B9A420ED1BB
:101E2000826942F0040282618069039100F004003B
:101E300004900C20CDE900016946134811E0134BD2
:101E40009A42E8D1826942F010028261806903916E
:101E500000F0100004904FF43070CDE900016946A5
:101E60000B48FEF7D1FDD6E7002C014000100240E0
:101E7000000001400018014000080040001401402B
:101E8000000C0140000C00400008014000340140FB
:101E900000100140704770B5044690F83C000D46B4
:101EA00001280DD0012684F83C60022084F83D0012
:101EB00042B1042A18D0082A2AD00C2A4DD139E080
:101EC000022070BD206801F0EDF82068816941F0C2
:101ED000080181612068816921F004018161206825
:101EE00081692A69114311E0206801F00BF920682B
:101EF000816941F4006181612068816921F4806118
:101F00008161206881692A6941EA0221816124E0B6
:101F1000206801F02DF92068C16941F00801C16114
:101F20002068C16921F00401C1612068C1692A6982
:101F3000114311E0206801F04FF92068C16941F4B4
:101F40000061C1612068C16921F48061C1612068BC
:101F5000C1692A6941EA0221C16184F83D6000201B
:101F600084F83C0070BD10B5040003D094F83D0027
:101F700010B107E0012010BD002084F83C0020468D
:101F800000F00CF8022084F83D00211D206801F0CB
:101F900025F8012084F83D00002010BD70477047EF
:101FA00010B504460068012201F05EF80849206877
:101FB000884202D00749884203D1416C41F4004174
:101FC00041642068016841F001010160002010BDFA
:101FD000002C0140003401407047704770B5040088
:101FE00004D094F83900002510B106E0012070BD3E
:101FF00084F83850204600F023F8242084F8390073
:102000002068C16821F40051C160204601F030F918
:102010002068016921F4904101612068416921F043
:102020002A0141612068C16841F40051C160E56343
:10203000202084F8390084F83A00002070BD0000A8
:1020400030B585B000240094019402940394006894
:102050001449884224D11448816941F48041816146
:10206000816901F480410491816941F00401816139
:1020700080690E4D00F0040004904FF40070009051
:10208000022001900320039069462846FEF7BCFC1D
:102090002815CDE90004694628460294FEF7B4FCF1
:1020A00005B030BD0038014000100240000801407A
:1020B0002DE9F843044690F83A00994616460D4635
:1020C00020284FD195B18EB194F83800012849D01D
:1020D000012084F838000027E763222084F83A00C2
:1020E000FEF790FDA6858046E68531E00120BDE83B
:1020F000F883E08D401EE085A0684346B0F5805F20
:102100004FF000024FF020012046CDF8009004D09F
:1021100001F066F998B10320E9E701F061F90028C0
:10212000F9D1206900282068406803D0C1B225F8A1
:10213000011B0DE0C0F3080125F8021B08E020692F
:1021400000282068406801D000F07F0005F8010BEE
:10215000E08D0028CDD1202084F83A0084F8387032
:102160000020C4E70220C2E72DE9F843044690F8B6
:1021700039001F4616460D46202850D1A5B19EB104
:1021800094F8380001284AD0012084F838004FF034
:102190000008C4F83C80212084F83900FEF732FDA5
:1021A000A6848146E68426E00120BDE8F883E08C21
:1021B000401EE084A0684B46B0F5805F4FF00002FF
:1021C0004FF080012046009703D001F009F9E8B9EB
:1021D0000DE001F005F9C8B928882168C0F30800AE
:1021E0004860206908B16D1C05E0AD1C03E0216862
:1021F00015F8010B4860E08C0028D8D14B4600222E
:1022000040212046009701F0EBF808B10320CCE70D
:10221000202084F8390084F838800020C5E70220A7
:10222000C3E7000001A003F0C1F9FEE75800000079
:1022300010B504490448FEF79AF80249491E08708F
:1022400010BD0000F2210020B4560008F0B585B0A2
:1022500000242E480094019402940394816941F073
:1022600010018161816901F010010491816941F0DF
:1022700004018161816901F004010491816941F0E7
:1022800008018161816901F008010491816941F0CF
:1022900040018161816901F040010491816941F04F
:1022A0002001816180691A4E00F020000490002214
:1022B000E0213046FEF7A1FC164F002203213846EC
:1022C000FEF79BFC012220213846FEF796FC701495
:1022D000CDE90004694610480294FEF795FBE02022
:1022E0000125CDE900050220CDE9024069463046CE
:1022F000FEF78AFB2320CDE900050320CDE902404B
:1023000069463846FEF780FB05B0F0BD001002407C
:1023100000080140000C01400010014010B594B0CD
:1023200000240E940F941094119412941C2168466A
:102330001394FDF720FF1C2107A8FDF71CFF274879
:102340002549016040F29F51C0E9011440F2E73194
:10235000C0E9031444618461FFF72CFB4FF4805003
:102360000E900EA91D48FFF7CCFB1C48FFF7FBFDA4
:10237000129412A919481394FFF7F4FA6020CDE9DA
:1023800000040294039404940594002269461348BF
:102390000694FFF780FD042269461048FFF77BFD95
:1023A000082269460D48FFF776FD0C2269460B4866
:1023B000FFF771FD0794089409944FF400500A94B4
:1023C000CDE90B4007A905480D94FFF79EFA034895
:1023D000FFF7C4FC14B010BD002C014014220020F3
:1023E00010B58EB000240794089409940A940B94B5
:1023F0001C2168460C94FDF7BEFE19484FF0804141
:10240000016040F29F51C0E9011440F2E731C0E998
:1024100003148461FFF7CEFA4FF48050079007A9A8
:102420000F48FFF76EFB0E48FFF79DFD0B940BA9BD
:102430000B480C94FFF796FA6020CDE90004029453
:102440000822694606480494FFF725FD0C226946D8
:102450000348FFF720FD0248FFF780FC0EB010BDD7
:102460005422002010B58EB00024079408940994DB
:102470000A940B941C2168460C94FDF77CFE1C48C2
:102480001A49016040F29F51C0E9011440F2E7315E
:10249000C0E903148461FFF78DFA4FF48050079070
:1024A00007A91348FFF72DFB1148FFF75CFD0B94BC
:1024B0000BA90F480C94FFF755FA6020CDE90004F2
:1024C0000294042269460A480494FFF7E4FC0822B7
:1024D00069460748FFF7DFFC0C2269460448FFF70E
:1024E000DAFC0348FFF73AFC0EB010BD00080040CC
:1024F0009422002010B58EB000240794089409940B
:102500000A940B941C2168460C94FDF734FE1A487B
:102510001849016040F29F51C0E9011440F2E731CF
:10252000C0E903148461FFF745FA4FF48050079027
:1025300007A91148FFF7E5FA0F48FFF714FD0B94C0
:102540000BA90D480C94FFF70DFA6020CDE90004AB
:1025500002940822694608480494FFF79CFC0C2268
:1025600069460548FFF797FC0348FFF7F7FB0EB0F5
:1025700010BD0000000C0040D422002010B594B023
:1025800000240E940F941094119412941C21684608
:102590001394FDF7F0FD1C2107A8FDF7ECFD25487D
:1025A0002349016040F29F51C0E9011440F2E73134
:1025B000C0E9031444618461FFF7FCF94FF48050D3
:1025C0000E900EA91B48FFF79CFA1A48FFF7CBFCA8
:1025D000129412A917481394FFF7C4F96020CDE9AB
:1025E000000402940394049405940022694611485F
:1025F0000694FFF750FC042269460E48FFF74BFC97
:102600000C2269460B48FFF746FC0794089409948E
:102610004FF400500A94CDE90B4007A905480D94EA
:10262000FFF773F90348FFF799FB14B010BD0000E2
:1026300000340140142300201CB50EA10F4DD1E938
:10264000000101246E46CDE9000100224021284608
:10265000FEF7D3FA204602F075FF305D02F072FFFC
:10266000012240212846FEF7C8FA641C092CECDB45
:10267000FEE7000000412214081422410008014036
:1026800070470907090E002806DA00F00F0000F174
:10269000E02080F8141D704700F1E02080F800145D
:1026A000704770470A6842624A688262D1E9022331
:1026B0001A43D1E904310B43C16A1A4321F0F701EF
:1026C0001143C16200207047006800F003007047AA
:1026D00008B5084414300090006808BD70B50DF1CD
:1026E000100C11439CE870002343194329434268AE
:1026F000314347F6FF639A430A434260002070BDAE
:102700000321016000207047D0F8800070470A68FC
:102710008260D1E901231A43D1E903310B43C16837
:102720001A436FF30B011143C16000207047096821
:10273000C0F880100020704710B586B004463720DE
:10274000CDE9001040200290002003904FF48060FB
:10275000049069462046FFF7DAFF41F288323721BC
:10276000204600F087F906B010BD000010B5044601
:102770000A4886B001432920CDE90010402002908C
:10278000002003904FF48060049069462046FFF7D4
:10279000BEFF204600F024FA06B010BD00001080F5
:1027A00010B586B004461020CDE9001040200290FC
:1027B000002003904FF48060049069462046FFF7A4
:1027C000A6FF41F288321021204600F053F906B0EE
:1027D00010BD000030B585B000240546009401947A
:1027E0004FF480600294CDE9034069462846FFF724
:1027F0008EFF0B484FF4FA510068B0FBF1F041F244
:1028000088314843401E03D24FF0004005B030BD30
:10281000696B0906F6D540F2FF50A8632046F5E73C
:102820000422002070B585B004464FF4D5700090A6
:1028300008204026CDE901060025C001CDE903505E
:1028400069462046FFF763FF0F484FF4FA510068CE
:10285000B0FBF1F041F288314843401E02D24FF004
:1028600000450DE0616B11F0450FF6D0606B40073D
:1028700002D5A663042503E0606B400600D5A6637D
:1028800005B0284670BD00000422002010B586B0B7
:1028900004461220CDE90010402002900020039051
:1028A0004FF48060049069462046FFF730FF41F204
:1028B00088321221204600F0DDF806B010BD10B5B8
:1028C00086B004461120CDE900104020029000207F
:1028D00003904FF48060049069462046FFF717FF8D
:1028E00041F288321121204600F0C4F806B010BD34
:1028F00010B586B004460720CDE9002040200290A4
:10290000002003904FF48060049069462046FFF752
:10291000FEFE41F288320721204600F0ABF806B0F7
:1029200010BD10B586B0044600210220CDE900108C
:10293000C020CDE902014FF4806004906946204632
:10294000FFF7E5FE204600F023F906B010BD10B5F4
:1029500086B004460920CDE90010C0200290002076
:1029600003904FF48060049069462046FFF7CFFE45
:10297000204600F00DF906B010BD10B586B0044633
:102980000D20CDE9001040200290002003904FF46C
:102990008060049069462046FFF7B9FE41F2883214
:1029A0000D21204600F066F806B010BD30B585B0A8
:1029B0000C46054600210320CDE900104020CDE95A
:1029C00002010001049069462846FFF7A0FE224656
:1029D0000321284600F024F905B030BD10B586B0BB
:1029E000044600210C20CDE900104020CDE9020171
:1029F0000001049069462046FFF789FE034A0C2136
:102A0000204600F037F806B010BD000000E1F505E3
:102A100010B586B004461920CDE900104020029080
:102A2000002003904FF48060049069462046FFF731
:102A30006EFE41F288321921204600F01BF806B0E4
:102A400010BD10B586B004461820CDE90010402016
:102A50000290002003904FF4806004906946204665
:102A6000FFF755FE41F288321821204600F002F8A7
:102A700006B010BD444B10B51B684FF4FA54B3FBBD
:102A8000F4F353435B1E02D24FF0004010BD426B83
:102A900012F0450FF6D0426B520703D50421816333
:102AA000084610BD426BD20702D00121816303E0CA
:102AB0000269D2B28A4201D0012010BD40F2FF511A
:102AC00081630021FFF704FE3049084201D1002054
:102AD00010BD002802DA4FF0007010BD410001D592
:102AE000402010BD810001D5802010BDC10002D55D
:102AF0004FF4807010BD010102D54FF4007010BD7D
:102B0000410102D54FF4806010BDC10102D54FF4E0
:102B1000006010BD010202D54FF4805010BD41028B
:102B200002D54FF4005010BD810202D54FF4804011
:102B300010BDC10202D54FF4004010BD410302D5C3
:102B40004FF4003010BD810302D54FF4802010BD3A
:102B5000C10302D54FF4002010BD010402D54FF48B
:102B6000801010BD410402D54FF4001010BD810447
:102B700002D54FF4800010BD000702D54FF40000CD
:102B800010BD4FF4803010BD0422002008E0FFFD8E
:102B900012494FF4FA520968B1FBF2F141F288325E
:102BA0005143491E02D24FF000407047426B12F071
:102BB000450FF6D0416B490703D5042181630846D0
:102BC0007047416BC90703D00121816308467047F4
:102BD00040F2FF5181630020704700000422002072
:102BE0000E494FF4FA520968B1FBF2F141F2883212
:102BF0005143491E02D24FF000407047426B12F021
:102C0000450FF6D0416B490703D50421816308467F
:102C1000704740F2FF51816300207047042200207A
:102C20001F4B10B51B684FF4FA54B3FBF4F341F299
:102C3000883463435B1E02D24FF0004010BD446BEA
:102C400014F0450FF6D0436B5B0703D50421816375
:102C5000084610BD436BDB0702D00121816303E00E
:102C60000369DBB28B4201D0012010BD40F2FF515D
:102C700081630021FFF72CFD10F4604F04D0410464
:102C800006D54FF4005010BD000C1080002010BD80
:102C9000000402D54FF4805010BD4FF4803010BDB9
:102CA0000422002010B590B004460120ADF8380091
:102CB0002068FFF709FD002864D0606C032842D02B
:102CC0002068FFF72EFE00285AD100212068FFF768
:102CD000FFFC606704212068FFF7FAFCA067082169
:102CE0002068FFF7F5FCE0670C212068FFF7F0FC97
:102CF000C4F88000606C032825D00EA92068FFF777
:102D000055FE00283CD1606C03281CD0BDF838006B
:102D1000206501042068FFF71AFE002830D1002149
:102D20002068FFF7D5FC606604212068FFF7D0FC1F
:102D3000A06608212068FFF7CBFCE0660C21206824
:102D4000FFF7C6FC206704212068FFF7C1FC000DD7
:102D5000E06403A92046FEF77FFAB4F85000002390
:102D600002042068FFF7C4FD002809D104F1100017
:102D700007C88DE8070094E80F00FFF7AFFC0020BC
:102D800010B010BD4FF08060FAE72DE9F843002540
:102D9000044600950068FFF71DFD00281AD1206841
:102DA000FFF740FD4FF080784FF6FF76D8B14FF037
:102DB0008057A5640098411C0091B0421AD00021B0
:102DC0002068FFF7B9FC20B900212068FFF7CEFC8E
:102DD00010B13846BDE8F88300212068FFF778FC81
:102DE000C00FE7D01FE00127A7640098411C0091A5
:102DF000B04201D14046EDE700212068FFF79CFC7E
:102E00000028E7D14FF080412068FFF7AFFC002891
:102E1000E0D100212068FFF75BFCC10FE5D0400046
:102E200001D5676400E065640020D3E710B5064C67
:102E300001202070FDF718FA18B9207820F0010061
:102E40002070207810BD00001022002010B512481C
:102E500088B014460078C00702D0032008B010BD27
:102E6000B9B1012905D0022908D003290CD00420CA
:102E7000F4E76846FDF7E6F9069809E06846FDF7CD
:102E8000E1F90798208004E06846FDF7DBF9079830
:102E900020600020E2E70000102200202DE9F04130
:102EA0001E46174608460125094C0A4B324639464C
:102EB000FDF7ECF928B109E0641E02D20120BDE85B
:102EC000F081FDF7C5F90028F6D100252846F6E780
:102ED000A086010000E1F50510B5064C0120207028
:102EE000FDF7B6F918B9207820F00100207020789D
:102EF00010BD0000102200202DE9F0411E461746AB
:102F000008460125094C0A4B32463946FDF7CEF9F1
:102F100028B109E0641E02D20120BDE8F081FDF76E
:102F200097F90028F6D100252846F6E7A08601008B
:102F300000E1F5057047FDF76BBE30B58FB0282175
:102F40006846FDF718F914210AA8FDF714F90121C4
:102F50000804CDE900100024029402250491CDE973
:102F600007504FF4E01009906846FDF7F3FF0F207B
:102F7000CDE90A056802CDE90C4002210AA80E94A9
:102F8000FDF7DCFE0FB030BD0D48016841F00101D6
:102F9000016041680B4A1140416001680A4A1140D2
:102FA0000160016821F480210160416821F4FE0183
:102FB00041604FF41F0181600449C00308607047FD
:102FC000001002400000FFF8FFFFF6FE08ED00E0F1
:102FD0000148FEF710BE000018260020F0B5026878
:102FE0001C4B1D4D1D4E1E4F1E4C4FF0804C9842E9
:102FF00009D0A04207D0604505D0A84203D0B04216
:1030000001D0B84204D122F0700E4A6842EA0E02A2
:10301000984209D0A04207D0604505D0A84203D00D
:10302000B04201D0B84203D122F44075CA682A43A5
:1030300022F080054A692A4302608A68C2620A68EF
:103040008262984201D0A04201D109690163012145
:103050004161F0BD002C0140000400400008004028
:10306000000C00400034014010B50123046A8B407D
:103070009C430462036A8A401343036210BD10B587
:10308000846842EA032224F47F440A432243826094
:1030900010BD826822F070020A4342F0070181608D
:1030A00070470000F0B5026A22F001020262036A72
:1030B00042688469124E24F073050C682C4323F097
:1030C00002058B682B430D4DA84201D0B04205D1BB
:1030D00023F00807CB683B4323F00403A84201D048
:1030E000B04205D14D6922F4407215438A692A43E2
:1030F00042608461496841630362F0BD002C014075
:1031000000340140F0B5026A22F010020262026A45
:10311000436884690D6824F4E64444EA05248D6814
:1031200022F0200242EA05120F4D104EA84201D0B3
:10313000B04206D1CF6822F0800242EA071222F0A4
:103140004002A84201D0B04207D14D6923F4406348
:1031500043EA85038D6943EA8503436084614968D6
:1031600081630262F0BD0000002C01400034014088
:10317000F0B5026A22F480720262026A4368C4698E
:1031800022F4007224F073050C68124E2C438D68F3
:1031900042EA05220E4DA84201D0B04206D1CF68C6
:1031A00022F4006242EA072222F48062A84201D09F
:1031B000B04207D14D6923F4405343EA05138D69AA
:1031C00043EA05134360C4614968C1630262F0BD0C
:1031D000002C01400034014030B5026A22F48052D4
:1031E0000262046A4268C3690D6823F4E64343EA55
:1031F00005238D6824F4005444EA0534084DA842A0
:1032000002D0084DA84204D14D6922F4804242EA1E
:1032100085124260C36149680164046230BD0000E8
:10322000002C01400034014010B5036A046A24F008
:1032300001040462846924F0F00444EA021423F0D7
:103240000A020A438461026210BD10B5036A23F0CA
:10325000100303628369046A23F4704343EA023271
:1032600024F0A00343EA01118261016210BD000055
:103270002DE9F041044600680169E26821F44051FB
:10328000114301612169A06808436169084321680D
:10329000CA6841F20C639A430243CA6020684169DC
:1032A000A26921F44071114341614C4920686425B1
:1032B000322688423CD1FDF707FE00EBC00101EB4E
:1032C000001061688900B0FBF1F7FDF7FDFD00EB30
:1032D000C00101EB00106168B0468900B0FBF1F05D
:1032E000B0FBF5F06FF01801484307EB800106EBE7
:1032F0000110B0FBF5F000F0F006FDF7E5FD00EB86
:10330000C00101EB001061688900B0FBF1F0B0FB77
:10331000F5F006EB0016FDF7D7FD00EBC00101EB61
:10332000001061688900B0FBF1F7FDF7CDFD3BE0CF
:10333000FDF7BAFD00EBC00101EB001061688900E8
:10334000B0FBF1F7FDF7B0FD00EBC00101EB0010A1
:103350006168B0468900B0FBF1F0B0FBF5F06FF0AA
:103360001801484307EB800106EB0110B0FBF5F0B4
:1033700000F0F006FDF798FD00EBC00101EB001036
:1033800061688900B0FBF1F0B0FBF5F006EB0016C8
:10339000FDF78AFD00EBC00101EB001061688900B8
:1033A000B0FBF1F7FDF780FD00EBC00101EB001071
:1033B00061688900B0FBF1F0B0FBF5F06FF0180127
:1033C000484307EB800108EB0110B0FBF5F02168E2
:1033D00000F00F0030448860BDE8F0810038014003
:1033E0002DE9F041984617460E460446069D1DE01D
:1033F000681C1BD02DB1FDF705FCA0EB0800A8420E
:1034000014D92068C16821F4D071C1602068416975
:1034100021F001014161202084F8390084F83A004C
:10342000002084F838000320BDE8F081206800689F
:1034300036EA000004D00020B842D9D00020F3E7DB
:103440000120F9E7FEE702E008C8121F08C1002AC0
:10345000FAD170477047002001E001C1121F002A15
:10346000FBD1704710B50446002084F80402401ECA
:10347000C4F82C02204601F067FB08B1032010BD00
:10348000B4F8FE01A0F52A41553901D0022010BD43
:1034900094F83600B4F8371040EA01210848B0EB40
:1034A000012F08D094F85210B4F8532041EA0221B9
:1034B000B0EB012F01D1002010BD012010BD000094
:1034C00000464154F0B50022184B144602EB420668
:1034D00053F8265085B1D0F80072BD420DD103EBF0
:1034E0008605D0F808626F68B74206D12D89B0F81A
:1034F0000662B54204D000E00124521C022AE5D342
:10350000022A01D079B904E05CB9022909D012205D
:10351000F0BD02EB420003EB80004089B0F5807FF4
:1035200001D00020F0BD1020F0BD00000C290020CB
:1035300030B50021064A0C4601EB410352F82350F6
:10354000854201D142F82340491C0229F4D330BD01
:103550000C290020D0F82422D0F80002490A90F863
:103560000202B1FBF0F0121D02CA19B1884203D366
:10357000401AF8E700207047116808447047D0F8F7
:103580001422891E921E8A4201D800207047D0F86A
:10359000282290F8020201FB002070472DE9F0413B
:1035A0000F00054606D000F06FFF02280BD2012065
:1035B000BDE8F081D5F80C621EB1D5F81402B04216
:1035C00008D8012606E0411CF2D0D5F81412814239
:1035D000EED83E463446D5F81402641CA04202D808
:1035E0000224022E0AD32146284600F04DFF38B1AE
:1035F000411CDDD00128DBD0B442ECD10020D7E75C
:103600006FF070422146284601F016FB30B957B1E1
:1036100022463946284601F00FFB20B1012812D07E
:1036200001242046C4E7C5F80C42D5F81002411C1D
:10363000F7D0401EC5F8100295F8050240F00100D1
:1036400085F80502EDE74FF0FF34EAE72DE9F04792
:1036500089460C6800E0641C21782F29FBD05C2986
:10366000F9D0D0F818520B222021284601F0CBF9CE
:10367000002001460B460826E25C5B1C202A35D957
:103680002F2A33D05C2A31D02E2A01D0B04208D361
:10369000082E38D12E2A36D108200B268906090E8D
:1036A000EAE7802A05D3244F41F003013A4412F897
:1036B000802C22A700E07F1C97F800C0BCF1000F0F
:1036C00002D09445F7D11EE0A2F14107192F02D88C
:1036D00041F0020107E0A2F16107192F03D8203A57
:1036E00041F00101D2B22A54401CC5E71C44C9F87C
:1036F0000040202A01D8042200E0002218B12878D6
:10370000E52803D004E00620BDE8F08705202870F6
:10371000082E01D18806010E01F00300012801D115
:1037200042F01002C1F38100012801D142F00802E9
:10373000EA720020E8E7000008560008222A2B2C35
:103740003A3B3C3D3E3F5B5D7C7F000010B50C4A40
:1037500000214FF4006440F6FF7300BF32F81100FF
:10376000000922F81100A04202D200F5006001E039
:10377000A0F5006022F81100491C9942EEDB10BD53
:10378000E4010020401E022815D20C4B00EB400241
:1037900003EB82014889B0F5807F05D008B1401E57
:1037A00080B2488110B104E00020FAE7002043F81D
:1037B0002200002070470220704700000C290020E2
:1037C0002DE9F041B0F806620446761C30040F463D
:1037D000000C37D0D4F8100298B3310773D1401CD5
:1037E000C4F81002D4F80C12D4F8000231B190F8E9
:1037F0000222521E12EA161F05D064E0B0F8080239
:10380000B0421FD95FE000F03FFE054601281ED9F7
:10381000681C3AD0D4F80002D0F81412A94249D852
:103820007FB1D4F80C12FFF7B9FE05000DD0012DC1
:103830000DD0681C29D0D4F8000201F03CFE20BB5A
:1038400007E0FFE70420BDE8F0810720FBE7022046
:10385000F9E74FF400720021D4F8000201F0D3F828
:103860002946D4F80002FFF78AFED4F80012002798
:103870004FF00108C1F82C0211E000BF80F804826B
:10388000D4F8000201F017FE08B10120DBE7D4F8FC
:103890000002D0F82C12491C7F1CC0F82C12D4F85E
:1038A000000290F80212B942E8D8D0F82C12C91BD5
:1038B000C0F82C12C4F80C522946D4F80002FFF7C5
:1038C0005EFEC4F81002A4F80662D4F8000206F006
:1038D0000F0100EB4110C4F814020020B3E770B5EB
:1038E0000446002100F036F810E0D4F81012D4F8A5
:1038F000000201F029F958B9D4F814020078E5283B
:1039000009D040B101212046FFF75AFF0028ECD032
:10391000042809D009E0D4F81012D4F8000201F00C
:1039200013F9050003D013E00720054610E0D4F892
:1039300014022022002104F5007401F064F8D4E997
:1039400005010B2201F056F82168012081F80402DC
:10395000284670BD70B5A0F80612D0F808320D46A2
:103960000446012B40D0D4F80002D0F8141299423A
:103970003AD933B990F80012032906D1D0F824328D
:103980001BB190F80202060114E0B0F80812A94237
:103990002AD9D0F8240214E000F076FD0346401C3A
:1039A00020D0022B20D3D4F80002D0F81402984281
:1039B0001AD9AD1BD4F80002B5421946ECD2FFF774
:1039C000DEFDC4F80C3278B100EB1510C4F810021B
:1039D000D4F8000205F00F0100EB4110C4F8140206
:1039E000002070BD012070BD022070BD084910B5D7
:1039F0000B5C002253B901220A540A1801EB800023
:103A0000127A40680168104688470246104610BD89
:103A10002429002030B4054C231804EB80001B7AC5
:103A2000406804691846A44630BC60472429002039
:103A300030B4054D2C1805EB8000247A4068856869
:103A40002046AC4630BC604724290020044A1118A7
:103A500002EB8000097A406842680846104700007F
:103A60002429002030B4054D2C1805EB8000247A61
:103A70004068C5682046AC4630BC60472429002019
:103A800010B5044600F018FB00280DD1204601F0C7
:103A900042FD002808D1D4F82802FFF773FE002861
:103AA00002D10021C4F8001210BD00002DE9FC5F16
:103AB0000D46044601F02FFD5FEA000973D194F82A
:103AC000070200286FD1D4F8240201274FF0020A20
:103AD000002869D0691C33D0D4F80C02A84200D267
:103AE0000546C4F80852002D5CD02046691EFFF739
:103AF00031FD0146C4F81402D4F80002FFF73FFD7F
:103B000000287CD0D4F800126D1E91F80222521EBB
:103B100002EA55221518B4F80802C005E4D0D4F81A
:103B20001822AA42E0D094F80602400646D591F841
:103B3000010201232146FFF795FF002874D137E0E9
:103B400002C80091D4F810128346022509B300265A
:103B5000AD1C01918846761CD4F8000200F094FC5C
:103B6000014601284BD9481C5ED008F10100814272
:103B7000F0D00098854206D8CBF800600BF1040025
:103B8000019A04C08346D4F80002D0F81402884297
:103B9000DDD8D4F8240205600098854205D80021BC
:103BA000CBF80010C2E09DE016E04FF01109BDE037
:103BB00094F8060220F0400084F80602D4F80002CF
:103BC00001232A4690F801022146FFF731FF002821
:103BD0002AD1C4F81852A9E0D4F80C02A84204D2A1
:103BE00094F80612890700D405464FF00008D4F86F
:103BF0000802C4F808824DB3D4F8002200E06EE059
:103C000092F802124E0280B1691E401EB1FBF6F11D
:103C1000B0FBF6F3994208D3711E8843C4F808023A
:103C20002D1AD4F8141210E06EE0D4F8101251B925
:103C300000211046FFF7B2FC014601284FD0481C76
:103C400062D0C4F81012C4F8141211BB31E000BFE6
:103C500094F806028007D4F8000205D5FFF79EFC11
:103C6000010004D1354616E000F00EFC0146481C68
:103C70004AD0012933D9D4F80002D0F8140288427E
:103C80002DD9C4F81412D4F80802AD1B3044C4F87E
:103C90000802B542DCD8D4F808022844C4F8080267
:103CA000E80506D0D4F80002FFF769FCB8B100EBD4
:103CB0005528B4F80802C0052CD0D4F81822424583
:103CC00028D094F80602400614D5D4F80002012347
:103CD000214690F80102FFF7C5FEA8B904E084F878
:103CE00007A20220BDE8FC9F94F8060220F04000E5
:103CF00084F80602D4F800020123424690F801023B
:103D00002146FFF795FE18B184F807720120E9E714
:103D1000C4F81882D4E98201884207D9C4F80C0299
:103D200094F8060240F0200084F806024846D9E7DD
:103D30002DE9F74181B0904602980090684600F066
:103D400006FC040003D50B2004B0BDE8F0810E4E44
:103D5000002756F8245025B12846FFF7E9FB85F8DF
:103D600000720198002801D080F8007246F8240003
:103D700002D0B8F1010F01D00020E5E7002202A92E
:103D800001A800F0F5F9DFE70C2200202DE9F74744
:103D9000ADF50B7D06000ED04FF0000802F01F07B6
:103DA00027F001028CA980A8C6F8008200F0E0F993
:103DB000040005D0B4E009200DF50E7DBDE8F087C4
:103DC00088A8869068468C9900F0FEFA859D0400CC
:103DD0000BD11DB1780803D0012102E0062404E0D4
:103DE00000216846FFF76EFB044617F01C0F5FD0FA
:103DF0004FF0010AD4B1042C13D100204A4902E04B
:103E0000401C022805D200EB400251F82220002A73
:103E1000F6D1022804D06846FFF761FD044600E0B1
:103E20001224859D47F0080754B179E0E87A10F034
:103E3000110F01D0072473E0780701D508246FE043
:103E4000380743D500F081FBA873010AE973010C20
:103E50002974000E687485F80B8085F81C8085F83D
:103E60001D8085F81E8085F81F802946809800F007
:103E7000DDFB81460021284601F0BAFA8099B9F1AC
:103E8000000F81F804A21FD080984946D0F82CA2D8
:103E900000F062FF040043D18099A9F10100C1F84C
:103EA0000C025146809800F04FFE04000AD037E023
:103EB000B4BBE87AC10601D5042431E0B90701D5C5
:103EC000C007B7D1380701D547F020078098D0F850
:103ED0002C02C6E98705780801D0012100E0002105
:103EE000684600F053FBC6F82802D8B186F806727F
:103EF00086F807824746294606F50076809800F046
:103F000095FB3061287FD5F81D1040EA0120C6E9F5
:103F10000270B761776280983060B0F80602B080B6
:103F2000204649E70224FBE70C2900202DE9F84F41
:103F300088460021994615460446196001F0EBFABF
:103F4000002812D194F8070200280ED194F8060236
:103F5000C00709D0D4E98201081A01274FF0020AEC
:103F6000854200D90546A2E00720BDE8F88F00BFD2
:103F7000D4F80812C8057CD1D4F8000290F80222C7
:103F8000521E02EA512212F0FF0614D131B1D4F8C8
:103F9000242232B12046FFF7DDFA06E0D4F8100201
:103FA00003E0D4F8141200F06FFA022823D3411C66
:103FB0005BD0C4F81402D4F81412D4F80002FFF74E
:103FC000DEFAC0B130440090680A5FEA000B2AD0E4
:103FD000D4F8001206EB0B0291F80202824201D9DA
:103FE000A0EB060B91F801025B464146009AFFF7F1
:103FF0001FFDD0BB03E084F807A20220B5E794F8C8
:10400000060240060CD5D4F818120098081A584534
:1040100006D208EB40204FF40072214600F0EAFC83
:104020004FEA4B2637E0D4F818220098824221D07C
:1040300094F8060240060ED5D4F80002012321466A
:1040400090F80102FFF70EFD78B994F8060220F00F
:10405000400084F80602D4F800020123214690F8BB
:104060000102009AFFF7E4FC20B184F807720120F6
:104070007BE702E00098C4F81802B4F80802C0F325
:104080000800C0F50076AE4200D92E46011932462E
:10409000404600F0AFFCD4F80802B0443044C4F805
:1040A0000802D9F800008119AD1BC9F80010002DD5
:1040B0007FF45EAF002058E770B5044601F02BFA9C
:1040C000002811D194F806128A060DD5480612D59B
:1040D000D4F800020123214690F80102D4F81822F6
:1040E000FFF7C0FC08B1012070BD94F8060220F073
:1040F000400084F80602D4F81C12D4F8000200F044
:1041000023FD0028F0D1D4F82052E87A40F02000B6
:10411000E87294F80C022877B4F80C02000A687769
:10412000D4F80C02000CA877D4F80C02000EE87743
:10413000D4F81012284604F5007401F059F900F083
:1041400004FAA875010AE975010C2976000E687653
:104150000020A874E874A07920F02000A0712168E4
:10416000012081F804022068BDE8704001F048B9E0
:104170002DE9FF474FF000090746C0F800901646AA
:10418000084600F0E4F9050003D50B2004B0BDE8B3
:10419000F0878A4850F82540A4B13C6094F80002AA
:1041A00028B194F80102FFF751FCC1070CD084F844
:1041B0000092E8B284F80102FFF718FCC10708D0AA
:1041C0000320E3E70C20E1E70EB1400704D4002010
:1041D000DCE71EB1400701D50A20D7E700252946B4
:1041E0002046FFF73FF9012823D100204FEA0D07B1
:1041F00004EB001191F8C22101F5DF712AB10A7AAE
:10420000D1F8091042EA012100E0002147F820100E
:10421000401C0428ECD3002657F826502DB129461F
:104220002046FFF71FF908B909E00220761C042E8A
:10423000F2D3032801D0E0BB01E00120A6E7B4F8E7
:104240000B00B0F5007F60D1E28A2AB994F824000F
:10425000D4F8251040EA0122C4F81822217C84F801
:104260000312012901D002294FD1607B514384F808
:104270000202F0B1431E184247D1B4F81130A4F83D
:1042800008321E0741D1B4F813602EB994F82060AB
:10429000D4F8217046EA0726B4F80EC0BCF1000F2E
:1042A00033D00CEB010707EB1317BE422DD3F61BDF
:1042B00000E02AE0B6FBF0F038B3012640F6F678CD
:1042C000404500D302264FF6F678404500D303263A
:1042D000801C2F44C4F82872AC44C4F81402C4E90A
:1042E000875C032E13D083B16144C4F82412022EDC
:1042F00019D000F0010100EB400001EB500000BFBD
:1043000000F2FF10B2EB502F0FD20D203EE7002B32
:10431000FBD194F82C10D4F82D30800041EA032111
:10432000C4F82412ECE74000EAE74FF0FF30C4F88D
:104330001002C4F80C02802084F80502032E30D14C
:10434000208E01282DD12046691C00F0FDFB40BBCA
:1043500084F80592B4F8FE01A0F52A41553920D120
:104360002078D4F8011040EA01201549884218D17C
:1043700094F8E401D4F8E51140EA0120114988429B
:104380000FD194F8E801D4F8E91140EA0120C4F80B
:10439000100294F8EC01D4F8ED1140EA0120C4F8C1
:1043A0000C02064984F80062091F0888401C088036
:1043B000A4F806022046FFF7BBF808E70C2200200D
:1043C000525261417272416173B504460199087895
:1043D0002F2801D05C2801D1491C01910025C4F887
:1043E000085201980078202806D200212046FFF7C5
:1043F000B1FAC4F814527CBD01A92046FFF726F992
:104400000028F8D100212046FFF7A4FA20BB00BF06
:10441000D4F81012D4F8000200F096FBE0B9D4F8FA
:1044200014120A7832B1CA7A12070FD40A23D4F8C8
:10443000182203E004200FE05B1E06D311F8015B95
:1044400012F8016BAD1BF7D000E02DB10021204622
:10445000FFF7B6F90028DBD0D4F81812C97A28B1D2
:104460000428C8D14907C6D405207CBD4907FCD41F
:10447000D4F81412C87AC006F6D5D4F8000200F0B9
:10448000D5F8C4F80802B7E72DE9F0410D46044617
:1044900002290DD3D4F81402A84209D994F80002D5
:1044A0004FF0FF36012807D002282AD0032836D043
:1044B00001263046BDE8F081D4F8200205EB55070F
:1044C00000EB5721204600F03FFB0028F1D1C7F355
:1044D00008007F1C14F80080D4F8200200EB57215C
:1044E000204600F031FB0028E3D1C7F30800215C2F
:1044F00048EA0120E90701D00609DAE7C0F30B0614
:10450000D7E7D4F8200200EB1521204600F01CFB71
:104510000028CED1E8B204EB40000688C9E7D4F801
:10452000200200EBD511204600F00EFB0028C0D180
:1045300040F2FF1000EA850020440178D0F8010025
:1045400041EA002020F07046B3E70020704710B524
:1045500004464FF0FF302268002A13D0114600E0D5
:10456000491C0B78212B0ED33A2BF9D112F8013BC1
:10457000303B0A2B06D28A4204D1002B02D1491CBF
:104580001846216010BD002010BD0000F0B50346A4
:10459000254AD3F80042002000EB400552F8256080
:1045A000A6420BD102EB8505D3F808626F68B742CB
:1045B00004D12D89B3F80662B54202D0401C02280E
:1045C000EAD302281AD1002002E0401C022805D2BA
:1045D00000EB400552F82550002DF6D1022815D0E9
:1045E00000EB400542F8254002EB8504D3F8086251
:1045F0006660B3F80632238100236381002900EB53
:10460000400102EB8101498902D019B10020F0BDBF
:10461000491C01E04FF4807100EB400302EB830280
:10462000401C5181F0BD00000C2900200246488B3F
:1046300092F80022032A02D1898A40EA0140704799
:104640002DE9F041194E042815DA00EBC0004FF0B7
:10465000010400EB060500BF05EB040010F8011C87
:10466000E0B200F08BFF1E20FCF7BCF9641C092CA3
:10467000F2DBBDE8F081FCD10425012405EBC50087
:104680008719381910F8011CE0B200F077FF1E20DE
:10469000FCF7A8F9641C092CF3DB6D1C072DECDB7F
:1046A000BDE8F0414FF4FA70FCF79CB9A40100207A
:1046B0002DE9F0410A4F0025012407EBC50630190A
:1046C00010F8011CE0B200F059FF1E20FCF78AF937
:1046D000641C092CF3DB6D1C092DEDDBBDE8F081BA
:1046E0005C0100201CB5FCF79BFAFEF726FCFDF7E9
:1046F000ADFDA548416941F00201416140690022D8
:1047000000F00200009011463A20FCF7E5FA3A204A
:10471000FCF7D6FA9E489D490024C0E90014846045
:10472000C46004250461C0E90545FDF781FD984991
:10473000009414399748019408600846FBF78AFEF4
:104740009348CDE90054002269461438FBF735FE42
:10475000FDF7E4FDFDF744FEFDF784FEFDF7CAFE1C
:104760008B48009484308C490194C0E9001442F2D3
:104770002731C0E902418461FDF71CF92020CDE911
:104780000004834869468430FDF7ECF8FDF7F6FE37
:104790007F488249C43001604FF41651C0E90114CA
:1047A0000C21C460C0E904418461C461FDF716FCBA
:1047B00000F008F9FFF77CFF4FF47A763046FCF7FB
:1047C00011F9774CA1696068FDF7EAFBE16960685F
:1047D000FDF7E6FB216A6068FDF7E2FB616A60684D
:1047E000FDF7DEFB216AA068FDF7DAFB616AA068CD
:1047F000FDF7D6FBA169E068FDF7D2FBE169E0684F
:10480000FDF7CEFB616AE068FDF7CAFBE16920694C
:10481000FDF7C6FB216A2069FDF7C2FB616A2069CA
:10482000FDF7BEFB216A6069FDF7BAFB616A60694A
:10483000FDF7B6FB00F048FB554800211438FBF7A4
:1048400003FF534800211438FBF75EFE012255494F
:104850005548FFF76DFA554D4FF0000270B1202119
:104860002846FCF7CAF9524F4D4C4FF400563146DA
:104870003846FCF7BDF9012812D018E0012128467E
:10488000FCF7BBF94BA000F07BF90122114628464A
:10489000FCF7B3F93046FCF7A5F800220221DFE768
:1048A000414864230E2245494038FDF75DFC3E48EF
:1048B000642301223A494038FDF7FAFB00285ED113
:1048C0002078302808D052280FD047281BD0422803
:1048D0002AD04B2839D04BE0012223212846FCF76F
:1048E0008CF937A000F062FE42E001220321284645
:1048F000FCF783F9002220212846FCF77EF90120ED
:10490000FFF79EFE32E0012222212846FCF775F9CE
:10491000002201212846FCF770F90220FFF790FEE3
:10492000012000F003FC23E0012221212846FCF7AE
:1049300064F9002202212846FCF75FF90320FFF703
:104940007FFE012000F05EFB12E000F03DFA00BFA8
:1049500000F080FC14486423012211494038FDF71F
:10496000A7FB0028F4D120785328F1D100F0ACFA4D
:104970000D48642301220A494038FDF7F5FB042065
:10498000FFF75EFE73E70000001002400080014068
:1049900094250020007400400010004000380140C1
:1049A00000000020F221002098260020000C014089
:1049B0000010014074612E7761760000E221002032
:1049C0004142000010B50021092000F0D7FD03216D
:1049D0000A2000F0D3FD07210B2000F0CFFD0121BC
:1049E0000C2000F0CBFD0021BDE810400F2000F0AE
:1049F000C5BD000004E000BF11F8013B00F8013B19
:104A0000521EF9D27047C9B201E000F8011B521ED4
:104A1000FBD2704770B50D4606463EA1FBF7B6FBCC
:104A20003D4C20B92A460421606800F081F93BA181
:104A30003046FBF7ABFB20B92A460321206900F082
:104A400077F937A13046FBF7A1FB20B92A460421AC
:104A5000206900F06DF933A13046FBF797FB20B9D0
:104A60002A460121E06800F063F92FA13046FBF7E8
:104A70008DFB20B92A460221E06800F059F92BA1EC
:104A80003046FBF783FB20B92A460221206900F05B
:104A90004FF927A13046FBF779FB20B92A460121BF
:104AA000606800F045F923A13046FBF76FFB20B9A1
:104AB0002A460221606800F03BF91FA13046FBF74F
:104AC00065FB20B92A460321606800F031F91BA17B
:104AD0003046FBF75BFB20B92A460321606900F0F2
:104AE00027F917A13046FBF751FB20B92A460321CD
:104AF000A06800F01DF913A13046FBF747FB002822
:104B000006D12A46A068BDE87040042100F010B923
:104B100070BD0000453134000000002044313400F5
:104B20004431350043360000433700004431330040
:104B30004539000045313100453133004132000034
:104B4000423130004231310070B50546D0F82C02B8
:104B50000C460026A04210D0284600F0ACFC06000F
:104B60000BD195F80102012322462946FEF760FF8A
:104B700008B1741E0126C5F82C42304670BD0000F5
:104B80001CB5014601221D48FFF700F960B11C4C1D
:104B9000012203212046FCF730F800222021204684
:104BA000FCF72BF801201CBD16A000240068019022
:104BB0000AE0641C21461148FEF778FF124B0422DC
:104BC00069460E48FFF7B2F9042201A96846FBF7CF
:104BD000EBFA0028EDD100F01DF80020014600900E
:104BE00040F6FF73094A0A48FBF7B8FC08489830BA
:104BF000FCF758FF00F00EF800201CBD54230020E5
:104C0000000C01406461746128000020E401002070
:104C100080250020064B10B541F6FE7203F5DE71CB
:104C20000448FFF783F9BDE81040FEF78FBD000090
:104C300028000020542300202DE9F04717460D4698
:104C40000446022903D3D4F81402A84202D8022051
:104C5000BDE8F08794F8001207F0FF084FF0010953
:104C6000012920D0022950D00329F0D1D4F8200204
:104C700000EBD5112046FFF767FF0028E8D140F28E
:104C8000FF1101EA85010A194FF07043D2F80110B3
:104C900003EA0121394311700B0A53700B0C937016
:104CA000090ED17041E0D4F8200205EB550600EB67
:104CB00056212046FFF748FF0028C9D1C6F3080057
:104CC000761C2044E90703D0017868F31F1100E047
:104CD0003946017084F80492D4F8200200EB562182
:104CE0002046FFF731FF0028B2D1C6F30801214466
:104CF000EA0702D0C7F3071205E00A78C7F30323D7
:104D000002F0F0021A430A700FE0D4F8200200EB20
:104D100015212046FFF718FF002899D1E9B204EBCE
:104D200041013A0A81F800804A7084F804928FE7C2
:104D3000012908D0022909D003290AD0042901D168
:104D400000680264704700684263704700688263CD
:104D500070470068C26370472DE9F0410F46064670
:104D6000022917D3D6F81402B84213D9002523E03C
:104D700039463046FFF788FB040021D0012C09D0CA
:104D8000601C09D0002239463046FFF755FF050068
:104D900016D103E0022513E0012511E0D6F8100238
:104DA000411C08D0401CC6F8100296F8050240F0DD
:104DB000010086F805022746D6F81402B842D7D873
:104DC0002846BDE8F081000010B56424214632A0D9
:104DD000FFF720FE2046FBF705FE4B212FA0FFF733
:104DE00019FE55212EA0FFF715FE2046FBF7FAFD10
:104DF000552129A0FFF70EFEC820FBF7F3FD642123
:104E000028A0FFF707FE2046FBF7ECFD4B2126A06C
:104E1000FFF700FE552125A0FFF7FCFD2046FBF71C
:104E2000E1FD55211FA0FFF7F5FDC820FBF7DAFDD6
:104E300032211FA0FFF7EEFD2046FBF7D3FD5721DF
:104E40001CA0FFF7E7FD41211BA0FFF7E3FD204673
:104E5000FBF7C8FD412116A0FFF7DCFDC820FBF7DA
:104E6000C1FD322115A0FFF7D5FD2046FBF7BAFDA5
:104E70003F2113A0FFF7CEFD412112A0FFF7CAFD8D
:104E80002046FBF7AFFD41210CA0FFF7C3FDBDE8B5
:104E90001040C820FBF7A6BD443134004531340032
:104EA00044313500433700004336000044313300BD
:104EB0004531310045390000453133004231300081
:104EC000413200004231310070B56425322149A0E1
:104ED000FFF7A0FD2846FBF785FD642146A0FFF7FC
:104EE00099FD2846FBF77EFD642144A0FFF792FD63
:104EF0002846FBF777FD424C64220121E068FFF76A
:104F000017FF2846FBF76EFD64220221E068FFF7D9
:104F10000FFF2846FBF766FD642202212069FFF798
:104F200007FF2846FBF75EFD642201216068FFF75A
:104F3000FFFE2846FBF756FD322202216068FFF78C
:104F4000F7FE2846FBF74EFD322203216068FFF78B
:104F5000EFFE2846FBF746FD322203216069FFF78A
:104F6000E7FE2846FBF73EFD32220321A068FFF74B
:104F7000DFFE2846FBF736FD32220421A068FFF74A
:104F8000D7FE2846FBF72EFD5FF00005C5F1640350
:104F90009AB203212069FFF7CBFE9AB2042120695F
:104FA000FFF7C6FE9AB20221E068FFF7C1FE9AB28F
:104FB00002212069FFF7BCFE05F132039AB20221FB
:104FC0006068FFF7B5FE9AB203216068FFF7B0FE94
:104FD0009AB20321A068FFF7ABFE9AB20421A06841
:104FE000FFF7A6FE6420FBF7FDFC6D1C0D2DCDDB4D
:104FF00070BD000045313400443134004431350087
:10500000000000202DE9F0410646474D84E064246D
:10501000224603212869FFF78BFE2046FBF7E2FCBE
:105020004B2204216868FFF783FE2046FBF7DAFC79
:10503000552203212869FFF77BFE2046FBF7D2FCAF
:10504000322202216868FFF773FE2046FBF7CAFC94
:105050007D2201216868FFF76BFE2046FBF7C2FC4A
:10506000412202216868FFF763FE2046FBF7BAFC85
:1050700032220321A868FFF75BFE2046FBF7B2FC53
:105080004B2203216869FFF753FE2046FBF7AAFC79
:1050900041220321A868FFF74BFE2046FBF7A2FC44
:1050A00064220221E868FFF743FE2046FBF79AFCE2
:1050B0007D220121E868FFF73BFE2046FBF792FCCA
:1050C00055220221E868FFF733FE2046FBF78AFCF1
:1050D0005FF00004C4F14B07BAB204216868FFF71F
:1050E00027FEC4F17D039AB201216868FFF720FE14
:1050F000BAB203216869FFF71BFE9AB20121E86882
:10510000FFF716FE3220FBF76DFC641D192CE1DB66
:105110004FF4FA70FBF766FC301EA6F101063FF76C
:1051200076AFBDE8F0810000000000202DE9F041DD
:105130000646474D84E06424224603212869FFF790
:10514000F7FD2046FBF74EFC192204216868FFF7A3
:10515000EFFD2046FBF746FC552203212869FFF7A7
:10516000E7FD2046FBF73EFC322202216868FFF78C
:10517000DFFD2046FBF736FC4B2201216868FFF774
:10518000D7FD2046FBF72EFC412202216868FFF77D
:10519000CFFD2046FBF726FC32220321A868FFF74B
:1051A000C7FD2046FBF71EFC192203216869FFF7A3
:1051B000BFFD2046FBF716FC41220321A868FFF73C
:1051C000B7FD2046FBF70EFC64220221E868FFF7DA
:1051D000AFFD2046FBF706FC4B220121E868FFF7F4
:1051E000A7FD2046FBF7FEFB55220221E868FFF7EA
:1051F0009FFD2046FBF7F6FB5FF0000404F1190762
:10520000BAB204216868FFF793FD04F14B039AB228
:1052100001216868FFF78CFDBAB203216869FFF7C6
:1052200087FD9AB20121E868FFF782FD3220FBF783
:10523000D9FB641D192CE1DB4FF4FA70FBF7D2FBAC
:10524000301EA6F101063FF776AFBDE8F081000001
:10525000000000202DE9F0416424214658A0FFF70A
:10526000D9FB2046FBF7BEFB33274FF04B083946EE
:1052700054A0FFF7CFFB414653A0FFF7CBFB2046DE
:10528000FBF7B0FB55214EA0FFF7C4FBC820FBF78E
:10529000A9FB3F2529464BA0FFF7BCFB55214AA09F
:1052A000FFF7B8FB5726314648A0FFF7B3FB55215F
:1052B00047A0FFF7AFFB4B2146A0FFF7ABFB412117
:1052C00045A0FFF7A7FB394644A0FFF7A3FB4146E3
:1052D00043A0FFF79FFBC820FBF784FB322141A0CE
:1052E000FFF798FB2046FBF77DFB4B213BA0FFF728
:1052F00091FB41213AA0FFF78DFB2046FBF772FBA3
:10530000412138A0FFF786FBC820FBF76BFB322159
:1053100035A0FFF77FFB2046FBF764FB6327394688
:105320002CA0FFF777FB41462BA0FFF773FB20462D
:10533000FBF758FB41212CA0FFF76CFBC820FBF7C3
:1053400051FB4B211FA0FFF765FB55211EA0FFF766
:1053500061FB39461DA0FFF75DFB41461CA0FFF72E
:1053600059FB31461BA0FFF755FB41211AA0FFF75F
:1053700051FB294619A0FFF74DFB412118A0FFF76B
:1053800049FBC820FBF72EFB642118A0FFF742FB66
:105390002046FBF727FB4B210CA0FFF73BFB5521D9
:1053A0000BA0FFF737FB2046FBF71CFB55210FA096
:1053B000FFF730FBBDE8F041C820FBF713BB00004E
:1053C0004431340045313400443135004336000067
:1053D000443133004539000045313300413200008B
:1053E0004231310042313000453131004337000055
:1053F00081760A0AC2760A0C0275090E4175704759
:1054000070B5044600F057F8050052D194F8000238
:10541000032846D194F80502012842D14202002116
:105420002046FFF7F0FA552084F8FE01AA2084F800
:10543000FF015220207060706120A0704121E17056
:10544000722284F8E42184F8E52184F8E61184F8D6
:10545000E701D4F8100284F8E801010A84F8E911A0
:10546000010C84F8EA11000E84F8EB01D4F80C0268
:1054700084F8EC01010A84F8ED11010C84F8EE11B6
:10548000000E84F8EF01D4F81C220123521CC4F84A
:105490002C2294F801022146FEF7E4FA002084F859
:1054A0000502002294F801021146FEF7B3FA00B19A
:1054B0000125284670BD2DE9F041044690F804020C
:1054C000002728B3D4F82C5294F8010201232A466D
:1054D0002146FEF7C7FA08B1012719E0002084F839
:1054E0000402D4F82002D4F81812281A88420FD2E5
:1054F00094F803620AE0D4F818020123054494F8F2
:1055000001022A462146FEF7ADFA761E022EF2D29D
:105510003846BDE8F08110B588B1D0F8001271B1FD
:1055200091F800225AB1B1F80622B0F80402824282
:1055300005D191F80102FEF789FAC00700D00920D1
:1055400010BD000070B50C4E05460024002220213D
:105550003046FBF752FB05F0800280213046FBF716
:105560004CFB6806050E012220213046FBF745FB67
:10557000641C082CEADB70BD0008014070B50A4CC1
:105580000E460546002240212046FBF736FB284602
:10559000FFF7D8FF3046FFF7D5FF2046BDE8704043
:1055A00001224021FBF729BB000801402DE9F04111
:1055B00005460E4E4FF4FA7712E00124287806EBE8
:1055C000C0002044A0F5805090F8471EE0B2FFF7DD
:1055D000D5FF641C092CF1DB38466D1CFBF702FA81
:1055E00028780028E9D1BDE8F08100002C000020D7
:1055F0000000000000000000010203040607080983
:105600000000000001020304809A90B68EB78F80DC
:10561000D2D3D4D8D7DE8E8F909292E299E3EAEB80
:1056200059999A9D9C9D9E9FB5D6E0E9A5A5A6A7F0
:10563000A8A9AAABAC21AEAFB0B1B2B3B4B5B6B7FE
:10564000B8B9BABBBCBDBEBFC0C1C2C3C4C5C7C761
:10565000C8C9CACBCCCDCECFD0D1D2D3D4D5D6D752
:10566000D8D9DADBDCDDDEDFE0E1E2E3E5E5E6E741
:10567000E7E9EAEBEDEDEEEFF0F1F2F3F4F5F6F732
:10568000F8F9FAFBFCFDFEFF0004000200018000B7
:10569000400020001000080004000200000000800C
:1056A000004000200010000800400020001000080A
:1056B000000400022D2E0008D92E00089D2E00089F
:1056C000F92E00084D2E0008E856000800000020C2
:1056D00014220000EC010008945800081422002055
:1056E0001C47000056340008411314221B205404A8
:1056F0001314231B2094081AD404413204320832B4
:105700000C2A0210180C7B041424141020103050A2
:105710001001280D7C7E02027E4040407E3E020247
:105720000311101008182848FE0808083C20203CE7
:1057300004043C29081424243C1C3E2204161B08A3
:1057400008092A220329041A02311812047F041CB2
:10575000140C0418043E047E045C403C3C4D1901CA
:105760003C3C7C22011D7C7C4040036A40082A406E
:105770002018094C44443C4444447C042B447C861B
:1057800019883A3C5E1348304808242830203028D5
:1057900024471808407C81C3A599810111174262F2
:1057A000524A46423B3C42011B3C3C5D199C2B202B
:1057B0001C663C26221D10142422211C1E20209928
:1057C00019B139514A082F4B221C081324181A49C1
:1057D00001232A1C2808412214081422410739D821
:1057E0000008107F02040810207F5A810743C1017E
:1057F0001D8083E101091815808087F10101018076
:1058000080808FF90101818180809FFD0719092B1C
:10581000BFFF07848181FF8FFF81BDA5A5BD1089D2
:1058200011192A4CF1D1F1093C8F8B8F09891B6A20
:10583000BD093B81BD4E02FF0701FF01FF01FF01D2
:10584000FF01FF01FF01FF01FF01FF01FF01FF0158
:10585000FF01FF01FF01FF01FF01FF01FF01FF0148
:10586000FF01FF01FF01FF01FF01FF01FF01FF0138
:10587000FF01FF01FF01FF011D800F4B3220697303
:1058800020507265737365640A32018210ACA24ABB
:0458900004180000F8
:0400000508000131BD
:00000001FF
